{
  "contractName": "Bet",
  "abi": [
    {
      "constant": true,
      "inputs": [
        {
          "name": "myid",
          "type": "bytes32"
        },
        {
          "name": "result",
          "type": "string"
        }
      ],
      "name": "secondPlayer",
      "outputs": [
        {
          "name": "",
          "type": "address"
        }
      ],
      "payable": false,
      "stateMutability": "view",
      "type": "function"
    },
    {
      "constant": false,
      "inputs": [
        {
          "name": "myid",
          "type": "bytes32"
        },
        {
          "name": "result",
          "type": "string"
        },
        {
          "name": "proof",
          "type": "bytes"
        }
      ],
      "name": "__callback",
      "outputs": [],
      "payable": false,
      "stateMutability": "nonpayable",
      "type": "function"
    },
    {
      "anonymous": false,
      "inputs": [
        {
          "indexed": true,
          "name": "myid",
          "type": "bytes32"
        },
        {
          "indexed": true,
          "name": "result",
          "type": "string"
        },
        {
          "name": "proof",
          "type": "bytes"
        }
      ],
      "name": "__callback",
      "type": "function",
      "payable": false,
      "stateMutability": "nonpayable",
      "constant": false,
      "outputs": [
        {
          "name": "",
          "type": "address"
        }
      ]
    },
    {
      "anonymous": false,
      "inputs": [
        {
          "indexed": true,
          "name": "_secondPlayer",
          "type": "address"
        },
        {
          "indexed": true,
          "name": "newOwner",
          "type": "address"
        }
      ],
      "name": "dataFetched",
      "type": "function",
      "payable": false,
      "stateMutability": "view",
      "constant": true,
      "outputs": [
        {
          "name": "",
          "type": "bool"
        }
      ]
    },
    {
      "anonymous": false,
      "inputs": [
        {
          "indexed": true,
          "name": "newOwner",
          "type": "address"
        },
        {
          "indexed": true,
          "name": "newOwner",
          "type": "address"
        }
      ],
      "name": "counterOfSameCurrencies",
      "type": "function",
      "payable": false,
      "stateMutability": "view",
      "constant": true,
      "outputs": [
        {
          "name": "",
          "type": "uint256"
        }
      ]
    },
    {
      "anonymous": false,
      "inputs": [
        {
          "indexed": true,
          "name": "newOwner",
          "type": "address"
        },
        {
          "indexed": true,
          "name": "newOwner",
          "type": "address"
        }
      ],
      "name": "owner",
      "type": "function",
      "payable": false,
      "stateMutability": "view",
      "constant": true,
      "outputs": [
        {
          "name": "",
          "type": "address"
        }
      ]
    },
    {
      "payable": true,
      "stateMutability": "payable",
      "type": "function",
      "inputs": [
        {
          "name": "_secondPlayer",
          "type": "address"
        }
      ],
      "constant": false,
      "name": "fetchMarketCapLeader",
      "outputs": []
    },
    {
      "anonymous": false,
      "inputs": [
        {
          "indexed": true,
          "name": "previousOwner",
          "type": "address"
        },
        {
          "indexed": true,
          "name": "newOwner",
          "type": "address"
        }
      ],
      "name": "fetchCallbackCounter",
      "type": "function",
      "payable": false,
      "stateMutability": "view",
      "constant": true,
      "outputs": [
        {
          "name": "",
          "type": "uint256"
        }
      ]
    },
    {
      "anonymous": false,
      "inputs": [
        {
          "indexed": false,
          "name": "description",
          "type": "string"
        }
      ],
      "name": "payOut",
      "type": "function",
      "constant": false,
      "outputs": [],
      "payable": false,
      "stateMutability": "nonpayable"
    },
    {
      "anonymous": false,
      "inputs": [
        {
          "indexed": true,
          "name": "",
          "type": "uint256"
        },
        {
          "indexed": true,
          "name": "newOwner",
          "type": "address"
        }
      ],
      "name": "marketCapLeaders",
      "type": "function",
      "constant": true,
      "outputs": [
        {
          "name": "",
          "type": "string"
        }
      ],
      "payable": false,
      "stateMutability": "view"
    },
    {
      "constant": false,
      "inputs": [
        {
          "name": "newOwner",
          "type": "address"
        }
      ],
      "name": "transferOwnership",
      "outputs": [],
      "payable": false,
      "stateMutability": "nonpayable",
      "type": "function"
    },
    {
      "inputs": [
        {
          "name": "_secondPlayer",
          "type": "address"
        }
      ],
      "payable": true,
      "stateMutability": "payable",
      "type": "constructor"
    },
    {
      "payable": true,
      "stateMutability": "payable",
      "type": "fallback"
    },
    {
      "anonymous": false,
      "inputs": [
        {
          "indexed": false,
          "name": "description",
          "type": "string"
        }
      ],
      "name": "newOraclizeQuery",
      "type": "event"
    },
    {
      "anonymous": false,
      "inputs": [
        {
          "indexed": true,
          "name": "previousOwner",
          "type": "address"
        },
        {
          "indexed": true,
          "name": "newOwner",
          "type": "address"
        }
      ],
      "name": "OwnershipTransferred",
      "type": "event"
    }
  ],
  "bytecode": "0x60606040526040516020806200276683398101604052808051906020019091905050336000806101000a81548173ffffffffffffffffffffffffffffffffffffffff021916908373ffffffffffffffffffffffffffffffffffffffff16021790555080600660006101000a81548173ffffffffffffffffffffffffffffffffffffffff021916908373ffffffffffffffffffffffffffffffffffffffff16021790555060078054806001018281620000b891906200055e565b916000526020600020900160006040805190810160405280600781526020017f626974636f696e0000000000000000000000000000000000000000000000000081525090919091509080519060200190620001159291906200058d565b5050600780548060010182816200012d91906200055e565b916000526020600020900160006040805190810160405280600681526020017f726970706c650000000000000000000000000000000000000000000000000000815250909190915090805190602001906200018a9291906200058d565b505060078054806001018281620001a291906200055e565b916000526020600020900160006040805190810160405280600881526020017f657468657265756d00000000000000000000000000000000000000000000000081525090919091509080519060200190620001ff9291906200058d565b5050600780548060010182816200021791906200055e565b916000526020600020900160006040805190810160405280600c81526020017f626974636f696e2d63617368000000000000000000000000000000000000000081525090919091509080519060200190620002749291906200058d565b5050600780548060010182816200028c91906200055e565b916000526020600020900160006040805190810160405280600781526020017f63617264616e6f0000000000000000000000000000000000000000000000000081525090919091509080519060200190620002e99291906200058d565b5050600780548060010182816200030191906200055e565b916000526020600020900160006040805190810160405280600881526020017f6c697465636f696e000000000000000000000000000000000000000000000000815250909190915090805190602001906200035e9291906200058d565b5050600780548060010182816200037691906200055e565b916000526020600020900160006040805190810160405280600381526020017f6e656d000000000000000000000000000000000000000000000000000000000081525090919091509080519060200190620003d39291906200058d565b505060078054806001018281620003eb91906200055e565b916000526020600020900160006040805190810160405280600781526020017f7374656c6c61720000000000000000000000000000000000000000000000000081525090919091509080519060200190620004489291906200058d565b5050600780548060010182816200046091906200055e565b916000526020600020900160006040805190810160405280600481526020017f74726f6e0000000000000000000000000000000000000000000000000000000081525090919091509080519060200190620004bd9291906200058d565b505060078054806001018281620004d591906200055e565b916000526020600020900160006040805190810160405280600481526020017f696f74610000000000000000000000000000000000000000000000000000000081525090919091509080519060200190620005329291906200058d565b50506000600a60006101000a81548160ff021916908315150217905550600060098190555050620006b9565b815481835581811511620005885781836000526020600020918201910162000587919062000614565b5b505050565b828054600181600116156101000203166002900490600052602060002090601f016020900481019282601f10620005d057805160ff191683800117855562000601565b8280016001018555821562000601579182015b8281111562000600578251825591602001919060010190620005e3565b5b50905062000610919062000645565b5090565b6200064291905b808211156200063e57600081816200063491906200066d565b506001016200061b565b5090565b90565b6200066a91905b80821115620006665760008160009055506001016200064c565b5090565b90565b50805460018160011615610100020316600290046000825580601f10620006955750620006b6565b601f016020900490600052602060002090810190620006b5919062000645565b5b50565b61209d80620006c96000396000f3006060604052600436106100af576000357c0100000000000000000000000000000000000000000000000000000000900463ffffffff1680631bc1e19a146100b157806327dc297e1461010657806338bbfa50146101705780635a8b03641461021d578063606de3101461024a5780638da5cb5b146102735780639ce3d581146102c8578063aff7003a146102d2578063c2052403146102fb578063e6ee955814610310578063f2fde38b146103ac575b005b34156100bc57600080fd5b6100c46103e5565b604051808273ffffffffffffffffffffffffffffffffffffffff1673ffffffffffffffffffffffffffffffffffffffff16815260200191505060405180910390f35b341561011157600080fd5b61016e60048080356000191690602001909190803590602001908201803590602001908080601f0160208091040260200160405190810160405280939291908181526020018383808284378201915050505050509190505061040b565b005b341561017b57600080fd5b61021b60048080356000191690602001909190803590602001908201803590602001908080601f0160208091040260200160405190810160405280939291908181526020018383808284378201915050505050509190803590602001908201803590602001908080601f016020809104026020016040519081016040528093929190818152602001838380828437820191505050505050919050506105b1565b005b341561022857600080fd5b6102306105b6565b604051808215151515815260200191505060405180910390f35b341561025557600080fd5b61025d6105c9565b6040518082815260200191505060405180910390f35b341561027e57600080fd5b6102866105cf565b604051808273ffffffffffffffffffffffffffffffffffffffff1673ffffffffffffffffffffffffffffffffffffffff16815260200191505060405180910390f35b6102d06105f4565b005b34156102dd57600080fd5b6102e5610f5f565b6040518082815260200191505060405180910390f35b341561030657600080fd5b61030e610f65565b005b341561031b57600080fd5b6103316004808035906020019091905050611012565b6040518080602001828103825283818151815260200191508051906020019080838360005b83811015610371578082015181840152602081019050610356565b50505050905090810190601f16801561039e5780820380516001836020036101000a031916815260200191505b509250505060405180910390f35b34156103b757600080fd5b6103e3600480803573ffffffffffffffffffffffffffffffffffffffff169060200190919050506110ce565b005b600660009054906101000a900473ffffffffffffffffffffffffffffffffffffffff1681565b6000610415611223565b73ffffffffffffffffffffffffffffffffffffffff163373ffffffffffffffffffffffffffffffffffffffff1614151561044e57600080fd5b600090505b60078054905081101561057357816040518082805190602001908083835b6020831015156104965780518252602082019150602081019050602083039250610471565b6001836020036101000a0380198251168184511680821785525050505050509050019150506040518091039020600019166007828154811015156104d657fe5b9060005260206000209001604051808280546001816001161561010002031660029004801561053c5780601f1061051a57610100808354040283529182019161053c565b820191906000526020600020905b815481529060010190602001808311610528575b50509150506040518091039020600019161415610566576008600081548092919060010191905055505b8080600101915050610453565b600960008154809291906001019190505550600a60095414156105ac576001600a60006101000a81548160ff0219169083151502179055505b505050565b505050565b600a60009054906101000a900460ff1681565b60085481565b6000809054906101000a900473ffffffffffffffffffffffffffffffffffffffff1681565b635c2aad804211151561060657600080fd5b600a60009054906101000a900460ff1615151561062257600080fd5b3073ffffffffffffffffffffffffffffffffffffffff16316106786040805190810160405280600381526020017f55524c000000000000000000000000000000000000000000000000000000000081525061143d565b600a02111561073a577f46cb989ef9cef13e930e3b7f286225a086e716a90d63e0b7da85d310a9db0c9a60405180806020018281038252604b8152602001807f4f7261636c697a6520717565727920776173204e4f542073656e742c20706c6581526020017f6173652061646420736f6d652045544820746f20636f76657220666f7220746881526020017f652071756572792066656500000000000000000000000000000000000000000081525060600191505060405180910390a1610f5d565b7f46cb989ef9cef13e930e3b7f286225a086e716a90d63e0b7da85d310a9db0c9a6040518080602001828103825260378152602001807f4f7261636c697a652071756572696573207761732073656e742c207374616e6481526020017f696e6720627920666f722074686520616e737765722e2e00000000000000000081525060400191505060405180910390a16108896040805190810160405280600381526020017f55524c0000000000000000000000000000000000000000000000000000000000815250608060405190810160405280604181526020017f6a736f6e2868747470733a2f2f6170692e636f696e6d61726b65746361702e6381526020017f6f6d2f76312f7469636b65722f3f73746172743d30266c696d69743d31292e6981526020017f64000000000000000000000000000000000000000000000000000000000000008152506116c9565b5061094b6040805190810160405280600381526020017f55524c0000000000000000000000000000000000000000000000000000000000815250608060405190810160405280604181526020017f6a736f6e2868747470733a2f2f6170692e636f696e6d61726b65746361702e6381526020017f6f6d2f76312f7469636b65722f3f73746172743d31266c696d69743d31292e6981526020017f64000000000000000000000000000000000000000000000000000000000000008152506116c9565b50610a0d6040805190810160405280600381526020017f55524c0000000000000000000000000000000000000000000000000000000000815250608060405190810160405280604181526020017f6a736f6e2868747470733a2f2f6170692e636f696e6d61726b65746361702e6381526020017f6f6d2f76312f7469636b65722f3f73746172743d32266c696d69743d31292e6981526020017f64000000000000000000000000000000000000000000000000000000000000008152506116c9565b50610acf6040805190810160405280600381526020017f55524c0000000000000000000000000000000000000000000000000000000000815250608060405190810160405280604181526020017f6a736f6e2868747470733a2f2f6170692e636f696e6d61726b65746361702e6381526020017f6f6d2f76312f7469636b65722f3f73746172743d33266c696d69743d31292e6981526020017f64000000000000000000000000000000000000000000000000000000000000008152506116c9565b50610b916040805190810160405280600381526020017f55524c0000000000000000000000000000000000000000000000000000000000815250608060405190810160405280604181526020017f6a736f6e2868747470733a2f2f6170692e636f696e6d61726b65746361702e6381526020017f6f6d2f76312f7469636b65722f3f73746172743d34266c696d69743d31292e6981526020017f64000000000000000000000000000000000000000000000000000000000000008152506116c9565b50610c536040805190810160405280600381526020017f55524c0000000000000000000000000000000000000000000000000000000000815250608060405190810160405280604181526020017f6a736f6e2868747470733a2f2f6170692e636f696e6d61726b65746361702e6381526020017f6f6d2f76312f7469636b65722f3f73746172743d35266c696d69743d31292e6981526020017f64000000000000000000000000000000000000000000000000000000000000008152506116c9565b50610d156040805190810160405280600381526020017f55524c0000000000000000000000000000000000000000000000000000000000815250608060405190810160405280604181526020017f6a736f6e2868747470733a2f2f6170692e636f696e6d61726b65746361702e6381526020017f6f6d2f76312f7469636b65722f3f73746172743d36266c696d69743d31292e6981526020017f64000000000000000000000000000000000000000000000000000000000000008152506116c9565b50610dd76040805190810160405280600381526020017f55524c0000000000000000000000000000000000000000000000000000000000815250608060405190810160405280604181526020017f6a736f6e2868747470733a2f2f6170692e636f696e6d61726b65746361702e6381526020017f6f6d2f76312f7469636b65722f3f73746172743d37266c696d69743d31292e6981526020017f64000000000000000000000000000000000000000000000000000000000000008152506116c9565b50610e996040805190810160405280600381526020017f55524c0000000000000000000000000000000000000000000000000000000000815250608060405190810160405280604181526020017f6a736f6e2868747470733a2f2f6170692e636f696e6d61726b65746361702e6381526020017f6f6d2f76312f7469636b65722f3f73746172743d38266c696d69743d31292e6981526020017f64000000000000000000000000000000000000000000000000000000000000008152506116c9565b50610f5b6040805190810160405280600381526020017f55524c0000000000000000000000000000000000000000000000000000000000815250608060405190810160405280604181526020017f6a736f6e2868747470733a2f2f6170692e636f696e6d61726b65746361702e6381526020017f6f6d2f76312f7469636b65722f3f73746172743d39266c696d69743d31292e6981526020017f64000000000000000000000000000000000000000000000000000000000000008152506116c9565b505b565b60095481565b635c2aad8042111515610f7757600080fd5b600a60009054906101000a900460ff161515610f9257600080fd5b60026008541115610fd857600660009054906101000a900473ffffffffffffffffffffffffffffffffffffffff1673ffffffffffffffffffffffffffffffffffffffff16ff5b6000809054906101000a900473ffffffffffffffffffffffffffffffffffffffff1673ffffffffffffffffffffffffffffffffffffffff16ff5b60078181548110151561102157fe5b90600052602060002090016000915090508054600181600116156101000203166002900480601f0160208091040260200160405190810160405280929190818152602001828054600181600116156101000203166002900480156110c65780601f1061109b576101008083540402835291602001916110c6565b820191906000526020600020905b8154815290600101906020018083116110a957829003601f168201915b505050505081565b6000809054906101000a900473ffffffffffffffffffffffffffffffffffffffff1673ffffffffffffffffffffffffffffffffffffffff163373ffffffffffffffffffffffffffffffffffffffff1614151561112957600080fd5b600073ffffffffffffffffffffffffffffffffffffffff168173ffffffffffffffffffffffffffffffffffffffff161415151561116557600080fd5b8073ffffffffffffffffffffffffffffffffffffffff166000809054906101000a900473ffffffffffffffffffffffffffffffffffffffff1673ffffffffffffffffffffffffffffffffffffffff167f8be0079c531659141344cd1fd0a4f28419497f9722a3daafe3b4186f6b6457e060405160405180910390a3806000806101000a81548173ffffffffffffffffffffffffffffffffffffffff021916908373ffffffffffffffffffffffffffffffffffffffff16021790555050565b600080600160009054906101000a900473ffffffffffffffffffffffffffffffffffffffff1673ffffffffffffffffffffffffffffffffffffffff16148061129557506000611293600160009054906101000a900473ffffffffffffffffffffffffffffffffffffffff16611b0f565b145b156112a6576112a46000611b1a565b505b600160009054906101000a900473ffffffffffffffffffffffffffffffffffffffff1673ffffffffffffffffffffffffffffffffffffffff166338cc48316000604051602001526040518163ffffffff167c0100000000000000000000000000000000000000000000000000000000028152600401602060405180830381600087803b151561133457600080fd5b6102c65a03f1151561134557600080fd5b50505060405180519050600260006101000a81548173ffffffffffffffffffffffffffffffffffffffff021916908373ffffffffffffffffffffffffffffffffffffffff160217905550600260009054906101000a900473ffffffffffffffffffffffffffffffffffffffff1673ffffffffffffffffffffffffffffffffffffffff1663c281d19e6000604051602001526040518163ffffffff167c0100000000000000000000000000000000000000000000000000000000028152600401602060405180830381600087803b151561141d57600080fd5b6102c65a03f1151561142e57600080fd5b50505060405180519050905090565b600080600160009054906101000a900473ffffffffffffffffffffffffffffffffffffffff1673ffffffffffffffffffffffffffffffffffffffff1614806114af575060006114ad600160009054906101000a900473ffffffffffffffffffffffffffffffffffffffff16611b0f565b145b156114c0576114be6000611b1a565b505b600160009054906101000a900473ffffffffffffffffffffffffffffffffffffffff1673ffffffffffffffffffffffffffffffffffffffff166338cc48316000604051602001526040518163ffffffff167c0100000000000000000000000000000000000000000000000000000000028152600401602060405180830381600087803b151561154e57600080fd5b6102c65a03f1151561155f57600080fd5b50505060405180519050600260006101000a81548173ffffffffffffffffffffffffffffffffffffffff021916908373ffffffffffffffffffffffffffffffffffffffff160217905550600260009054906101000a900473ffffffffffffffffffffffffffffffffffffffff1673ffffffffffffffffffffffffffffffffffffffff1663524f3889836000604051602001526040518263ffffffff167c01000000000000000000000000000000000000000000000000000000000281526004018080602001828103825283818151815260200191508051906020019080838360005b8381101561165c578082015181840152602081019050611641565b50505050905090810190601f1680156116895780820380516001836020036101000a031916815260200191505b5092505050602060405180830381600087803b15156116a757600080fd5b6102c65a03f115156116b857600080fd5b505050604051805190509050919050565b6000806000600160009054906101000a900473ffffffffffffffffffffffffffffffffffffffff1673ffffffffffffffffffffffffffffffffffffffff16148061173d5750600061173b600160009054906101000a900473ffffffffffffffffffffffffffffffffffffffff16611b0f565b145b1561174e5761174c6000611b1a565b505b600160009054906101000a900473ffffffffffffffffffffffffffffffffffffffff1673ffffffffffffffffffffffffffffffffffffffff166338cc48316000604051602001526040518163ffffffff167c0100000000000000000000000000000000000000000000000000000000028152600401602060405180830381600087803b15156117dc57600080fd5b6102c65a03f115156117ed57600080fd5b50505060405180519050600260006101000a81548173ffffffffffffffffffffffffffffffffffffffff021916908373ffffffffffffffffffffffffffffffffffffffff160217905550600260009054906101000a900473ffffffffffffffffffffffffffffffffffffffff1673ffffffffffffffffffffffffffffffffffffffff1663524f3889856000604051602001526040518263ffffffff167c01000000000000000000000000000000000000000000000000000000000281526004018080602001828103825283818151815260200191508051906020019080838360005b838110156118ea5780820151818401526020810190506118cf565b50505050905090810190601f1680156119175780820380516001836020036101000a031916815260200191505b5092505050602060405180830381600087803b151561193557600080fd5b6102c65a03f1151561194657600080fd5b50505060405180519050905062030d403a02670de0b6b3a7640000018111156119755760006001029150611b08565b600260009054906101000a900473ffffffffffffffffffffffffffffffffffffffff1673ffffffffffffffffffffffffffffffffffffffff1663adf59f9982600087876000604051602001526040518563ffffffff167c0100000000000000000000000000000000000000000000000000000000028152600401808481526020018060200180602001838103835285818151815260200191508051906020019080838360005b83811015611a36578082015181840152602081019050611a1b565b50505050905090810190601f168015611a635780820380516001836020036101000a031916815260200191505b50838103825284818151815260200191508051906020019080838360005b83811015611a9c578082015181840152602081019050611a81565b50505050905090810190601f168015611ac95780820380516001836020036101000a031916815260200191505b50955050505050506020604051808303818588803b1515611ae957600080fd5b6125ee5a03f11515611afa57600080fd5b505050506040518051905091505b5092915050565b6000813b9050919050565b600080611b3a731d3b2638a7cc9f2cb3d298a3da7a90b67e5506ed611b0f565b1115611bdc57731d3b2638a7cc9f2cb3d298a3da7a90b67e5506ed600160006101000a81548173ffffffffffffffffffffffffffffffffffffffff021916908373ffffffffffffffffffffffffffffffffffffffff160217905550611bd36040805190810160405280600b81526020017f6574685f6d61696e6e6574000000000000000000000000000000000000000000815250611fb2565b60019050611fad565b6000611bfb73c03a2615d5efaf5f49f60b7bb6583eaec212fdf1611b0f565b1115611c9d5773c03a2615d5efaf5f49f60b7bb6583eaec212fdf1600160006101000a81548173ffffffffffffffffffffffffffffffffffffffff021916908373ffffffffffffffffffffffffffffffffffffffff160217905550611c946040805190810160405280600c81526020017f6574685f726f707374656e330000000000000000000000000000000000000000815250611fb2565b60019050611fad565b6000611cbc73b7a07bcf2ba2f2703b24c0691b5278999c59ac7e611b0f565b1115611d5e5773b7a07bcf2ba2f2703b24c0691b5278999c59ac7e600160006101000a81548173ffffffffffffffffffffffffffffffffffffffff021916908373ffffffffffffffffffffffffffffffffffffffff160217905550611d556040805190810160405280600981526020017f6574685f6b6f76616e0000000000000000000000000000000000000000000000815250611fb2565b60019050611fad565b6000611d7d73146500cfd35b22e4a392fe0adc06de1a1368ed48611b0f565b1115611e1f5773146500cfd35b22e4a392fe0adc06de1a1368ed48600160006101000a81548173ffffffffffffffffffffffffffffffffffffffff021916908373ffffffffffffffffffffffffffffffffffffffff160217905550611e166040805190810160405280600b81526020017f6574685f72696e6b656279000000000000000000000000000000000000000000815250611fb2565b60019050611fad565b6000611e3e736f485c8bf6fc43ea212e93bbf8ce046c7f1cb475611b0f565b1115611ea257736f485c8bf6fc43ea212e93bbf8ce046c7f1cb475600160006101000a81548173ffffffffffffffffffffffffffffffffffffffff021916908373ffffffffffffffffffffffffffffffffffffffff16021790555060019050611fad565b6000611ec17320e12a1f859b3feae5fb2a0a32c18f5a65555bbf611b0f565b1115611f25577320e12a1f859b3feae5fb2a0a32c18f5a65555bbf600160006101000a81548173ffffffffffffffffffffffffffffffffffffffff021916908373ffffffffffffffffffffffffffffffffffffffff16021790555060019050611fad565b6000611f447351efaf4c8b3c9afbd5ab9f4bbc82784ab6ef8faa611b0f565b1115611fa8577351efaf4c8b3c9afbd5ab9f4bbc82784ab6ef8faa600160006101000a81548173ffffffffffffffffffffffffffffffffffffffff021916908373ffffffffffffffffffffffffffffffffffffffff16021790555060019050611fad565b600090505b919050565b8060039080519060200190611fc8929190611fcc565b5050565b828054600181600116156101000203166002900490600052602060002090601f016020900481019282601f1061200d57805160ff191683800117855561203b565b8280016001018555821561203b579182015b8281111561203a57825182559160200191906001019061201f565b5b509050612048919061204c565b5090565b61206e91905b8082111561206a576000816000905550600101612052565b5090565b905600a165627a7a7230582029200c44244d7ba695e2521f35e0932113af351c096e22a5aa5eb3bf10a8b5ab0029",
  "source": "pragma solidity ^0.4.17;\n\nimport \"./Ownable.sol\"; \nimport \"./oraclize/contracts/usingOraclize.sol\";\n\ncontract Bet is Ownable, usingOraclize {\n  address public secondPlayer;\n  string[] public marketCapLeaders; //top 10 coinmarketcap ids as of January 2018\n  uint public counterOfSameCurrencies;\n  uint public fetchCallbackCounter;\n  bool public dataFetched;\n\n  event newOraclizeQuery(string description);\n\n  modifier onlyIn2019() {\n    require(now > 1546300800);\n    _;\n  }\n\n  modifier onlyIfDataFetched() {\n    require(dataFetched);\n    _;\n  }\n\n  modifier onlyIfDataNotFetched() {\n    require(!dataFetched);\n    _;\n  }\n\n  function Bet (address _secondPlayer) public payable {\n    secondPlayer = _secondPlayer;\n\n    marketCapLeaders.push(\"bitcoin\");\n    marketCapLeaders.push(\"ripple\");\n    marketCapLeaders.push(\"ethereum\");\n    marketCapLeaders.push(\"bitcoin-cash\");\n    marketCapLeaders.push(\"cardano\");\n    marketCapLeaders.push(\"litecoin\");\n    marketCapLeaders.push(\"nem\");\n    marketCapLeaders.push(\"stellar\");\n    marketCapLeaders.push(\"tron\");\n    marketCapLeaders.push(\"iota\");\n\n    dataFetched = false;\n    fetchCallbackCounter = 0;\n  }\n\n  function __callback(bytes32 myid, string result) {\n    if (msg.sender != oraclize_cbAddress()) throw;\n    for(uint i=0; i< marketCapLeaders.length; i++) {\n      if(keccak256(marketCapLeaders[i]) == keccak256(result)) {\n        counterOfSameCurrencies++;\n      }\n    }\n\n    fetchCallbackCounter++;\n    if(fetchCallbackCounter == 10) {\n      dataFetched = true;\n    }    \n  }\n\n  function fetchMarketCapLeader() payable onlyIn2019 onlyIfDataNotFetched {\n    if (10*oraclize_getPrice(\"URL\") > this.balance) { //we are making here 10 queries\n      newOraclizeQuery(\"Oraclize query was NOT sent, please add some ETH to cover for the query fee\");\n    } else {\n      newOraclizeQuery(\"Oraclize queries was sent, standing by for the answer..\");\n      //sending oraclize queries one by one, maybe there is a better solution...\n      oraclize_query(\"URL\", \"json(https://api.coinmarketcap.com/v1/ticker/?start=0&limit=1).id\");\n      oraclize_query(\"URL\", \"json(https://api.coinmarketcap.com/v1/ticker/?start=1&limit=1).id\");\n      oraclize_query(\"URL\", \"json(https://api.coinmarketcap.com/v1/ticker/?start=2&limit=1).id\");\n      oraclize_query(\"URL\", \"json(https://api.coinmarketcap.com/v1/ticker/?start=3&limit=1).id\");\n      oraclize_query(\"URL\", \"json(https://api.coinmarketcap.com/v1/ticker/?start=4&limit=1).id\");\n      oraclize_query(\"URL\", \"json(https://api.coinmarketcap.com/v1/ticker/?start=5&limit=1).id\");\n      oraclize_query(\"URL\", \"json(https://api.coinmarketcap.com/v1/ticker/?start=6&limit=1).id\");\n      oraclize_query(\"URL\", \"json(https://api.coinmarketcap.com/v1/ticker/?start=7&limit=1).id\");\n      oraclize_query(\"URL\", \"json(https://api.coinmarketcap.com/v1/ticker/?start=8&limit=1).id\");\n      oraclize_query(\"URL\", \"json(https://api.coinmarketcap.com/v1/ticker/?start=9&limit=1).id\");\n    }\n  }\n\n  function () public payable {\n    //you can increase anytime the amount of the bet\n  } \n\n  function payOut () public onlyIn2019 onlyIfDataFetched {\n    if(counterOfSameCurrencies>2) {\n      selfdestruct(secondPlayer);\n    } else {\n      selfdestruct(owner);\n    }\n  } \n}\n",
  "sourcePath": "/home/istvan/betOnCoinMarketCap/contracts/Bet.sol",
  "compiler": {
    "name": "solc",
    "version": "0.4.18+commit.9cf6e910.Emscripten.clang"
  },
  "schemaVersion": "1.0.1",
  "updatedAt": "2018-01-07T13:25:58.145Z"
}